:020000040800F2
:100000008014002001010008DB2100087F1E000889
:10001000D921000889060008B52A00080000000060
:100020000000000000000000000000009123000814
:10003000BB07000800000000FD210008152400088F
:100040001B0100081B0100081B0100081B01000820
:100050001B0100081B0100081B0100081B01000810
:100060001B0100081B0100081B0100081B01000800
:10007000610700086D070008790700088507000878
:100080001B0100081B0100081B0100081B010008E0
:100090001B0100081B0100081B0100081B010008D0
:1000A0001B010008D52400081B0100081B010008E3
:1000B0001B0100081B0100081B0100081B010008B0
:1000C0001B0100081B0100081B0100081B010008A0
:1000D0001B010008852A00081B0100089D2A000852
:1000E0001B0100081B0100081B010008DFF80CD0F1
:1000F00000F03AFA00480047CD3400088014002090
:100100000648804706480047FEE7FEE7FEE7FEE7B1
:10011000FEE7FEE7FEE7FEE7FEE7FEE78D240008C8
:10012000ED000008202A04DB203A21FA02F0002129
:10013000704721FA02F3D040C2F1200291400843F7
:100140001946704740EA01039B0703D009E008C93C
:10015000121F08C0042AFAD203E011F8013B00F88C
:10016000013B521EF9D2704730B50B4601460020C4
:100170002022012409E021FA02F59D4205D303FA69
:1001800002F5491B04FA02F52844151EA2F10102EA
:10019000F1DC30BD2DE9F05F0546002092469B461C
:1001A00088460646814640241BE02846414647468D
:1001B0002246FFF7B7FF53465A46C01A914110D363
:1001C00011461846224600F0E1F92D1A67EB0108A6
:1001D0004F4622460120002100F0D8F917EB000914
:1001E0004E41201EA4F10104DFDC484631462A4678
:1001F0004346BDE8F09F2DE9FE4F804681EA0300AB
:10020000C00F0C46009021F0004123F00045B8EBF0
:100210000200A94105D24046214690461C460B46A5
:10022000024623F00040104347D0270DC7F30A00D1
:10023000C3F30A510290401A019040286BDAC3F3CD
:10024000130040F4801B0098924620B10023D2EBAB
:10025000030A63EB0B0B01985946C0F1400250466C
:1002600000F094F906460D4650465946019A00F0B2
:100270009CF910EB08006141002487EA115284EADE
:10028000E7731A4340D0009A62B3019A012A4FEAF9
:10029000075215DC001B61EB02014FF0004202EA3D
:1002A0000752CDE90042001C41F5801132462B4631
:1002B00000F09CF903B0BDE8F08F40462146F9E715
:1002C000001B61EB0201001C41F5801300185B412B
:1002D0002018A2F5001747EB030140EAD570B619C4
:1002E0006D4111E06D084FEA360645EAC0754FEAE8
:1002F0000752001B61EB0201001C41F58011490807
:100300004FEA30000019514132462B4603B0BDE898
:10031000F04F00F05CB90098012240000023D0EBC0
:10032000020263EBE073009821464FEAE074B8EBF9
:10033000000061EB0401E9E783F000435BE781F033
:10034000004158E72DE9FE4F81EA030404F0004420
:1003500021F0004100944FF0000B23F0004350EADD
:1003600001045ED052EA03045BD0C3F30A54C1F324
:100370000A552C44A4F2F3340194A0FB0254C1F3B7
:10038000130141F48011C3F3130343F4801301FB01
:10039000024400FB034E840A970A44EA815447EA68
:1003A0008357A4FB076802958D0A05FB07854FEA72
:1003B000932C04FB0C542705029D4FEA065847EA8C
:1003C0001637B5EB08056EEB070C870E920E47EA61
:1003D000811742EA8312A7FB0201B6EB0B0164EB23
:1003E00000042B0D43EA0C335E1844EB1C50DA4634
:1003F0005146E7FB0201C5F313044FEA0B3343EA0E
:1004000014534FEA0432019C43EA0603A4F10C049E
:100410000294009CCDE900B400F0E8F803B0BDE818
:10042000F08F00200146F9E72DE9F04D81EA030441
:1004300004F0004B21F0004514464FF0000A23F071
:10044000004150EA050220D054EA01021DD0C5F354
:100450000A570246C5F31303C1F31300C1F30A564A
:1004600040F4801543F48013A7EB0608101BD64612
:1004700008F2FD3873EB050002D308F1010801E032
:1004800092185B41B8F1000F03DA00200146BDE885
:10049000F08D00204FF48011064684460EE0171BB5
:1004A00073EB050705D3121B63EB050306434CEA08
:1004B000010C49084FEA300092185B4150EA0107ED
:1004C000EDD152EA030012D082EA040083EA05016A
:1004D000084305D0101BAB4106D20122002306E0E1
:1004E00000224FF0004302E06FF0010253101AEBBC
:1004F00006004CEB085110EB0A0041EB0B01BDE884
:10050000F04D00F064B8C1F30A52C1F3130140F298
:10051000FF3341F480119A4202DA0020014670470D
:1005200040F233439A42A2F2334202DC5242FFF7D6
:10053000F9BD00F02BB8000030B5041E71F10004C5
:1005400004DB4FF00044404264EB0101141E73F1E0
:10055000000405DB1C464FF00043524263EB0403EA
:10056000994208BF904230BD064C074D06E0E06856
:1005700040F0010394E8070098471034AC42F6D3EA
:10058000FFF7B8FDD4350008F4350008202A04DB55
:10059000203A00FA02F1002070479140C2F1200396
:1005A00020FA03F3194390407047202A06DBCB174B
:1005B000203A41FA02F043EAE07306E041FA02F31E
:1005C000D040C2F12002914008431946704710B54F
:1005D000141E73F1000408DA401C41F10001921866
:1005E0005B411A4301D120F0010010BD2DE9F04D0F
:1005F00092469B4611B1B1FA81F202E0B0FA80F264
:1006000020329046FFF7C2FF04460F4640EA0A0038
:1006100041EA0B0153465A46084313D0114653EAA8
:10062000010019D0C8F140025046FFF77BFD054696
:100630000E46504659464246FFF7A8FF084305D0EC
:10064000012004E020463946BDE8F08D0020054336
:1006500046EAE0762C4337430A986305E40AA0EBA8
:1006600008000022FD0A44EA47540A3002D500205F
:100670000146E9E7010510196941DDE9084500195E
:100680006941BDE8F04DA2E7FEE700002DE9F04723
:100690004FF6FF7A524648F2050C4FF0000901254B
:1006A00024E000BF10F8017B69F307035FF000044A
:1006B00005FA04F6374206D0C4F1070805FA08F631
:1006C0001E4366F30703641C082CF1DBDBB282EAED
:1006D000032200235446160403D58CEA420292B248
:1006E00001E004EA42025B1C082BF4DB0B46491EC6
:1006F000D8D269F30F00002105FA01F31A4206D09F
:10070000C1F10F0405FA04F3034363F30F00491C1E
:100710001029F1DB80B2BDE8F087000070B50F4E04
:1007200004464FF48051304600F016FB0546711424
:10073000304600F011FB45EA40054FF48041304659
:1007400000F00AFB45EA80054FF40041304600F016
:1007500003FB45EAC000207070BD0000000C0140A2
:10076000014800F0F5B8000038100020014800F002
:10077000EFB80000F40F0020014800F0E9B80000D5
:100780006C0F0020014800F0E3B80000B00F00201B
:1007900030B590F840500124AC40C56B6C600468E3
:1007A00063604368102B036803D099600068C260DF
:1007B00030BD9A600068C16030BD704701784078F4
:1007C00000E0491C8142FCDB7047000001780948C9
:1007D00039B1012907D0022907D0032907D0FF200A
:1007E0007047007870474078704780787047C078CD
:1007F00070470000AC04002070B501780025214C42
:10080000012669B1012919D0022926D0032906D170
:10081000407880B30121032001F08AFDE67070BDAD
:10082000407828B10121022001F082FD267070BDC0
:100830000021022001F07CFD257070BD407828B1B8
:100840000121084601F074FD667070BD6570BDE859
:1008500070400021012001F06BBD407828B10121DA
:10086000002001F065FDA67070BD0021084601F072
:100870005FFDA57070BDFFE70021032001F058FD6A
:10088000E570F7E7AC04002001680A6822F00E0268
:100890000A6001680A6822F001020A6090F84020AC
:1008A000C36B012101FA02F25A6080F82110002185
:1008B00080F820100846704710B590F821100024E9
:1008C000022903D00421816301243DE001680A6804
:1008D00022F00E020A6001680A6822F001020A6032
:1008E0001A4A0168914201D1012121E0174A1432CC
:1008F000914201D110211BE0144A2832914201D1CA
:10090000891515E0114A3C32914201D189140FE05A
:100910000E4A5032914202D14FF4803108E00B4A26
:100920006432914202D14FF4801101E04FF08071A6
:10093000064A083A5160012180F82110002180F810
:100940002010416B01B18847204610BD08000240CD
:100950002DE9F05FC16B0C6801680B68D0F840C0EE
:10096000042202FA0CF2494DDFF824A1494E4A4F05
:10097000DFF828B1DFF828E122422CD05A072AD527
:100980000A68920603D40A6822F004020A60016829
:10099000A94201D1042219E0514501D1402215E0BC
:1009A000B14202D14FF4806210E0B94202D14FF45B
:1009B00080420BE0594502D14FF4802206E0714598
:1009C00002D14FF4800201E04FF080622F490839D4
:1009D0004A60C16A3BE04FF0020808FA0CF818EAD6
:1009E000040F4FF000094FF0010235D05FEA837821
:1009F00032D50B689B0605D40B6823F00A030B6005
:100A000080F821200168A94201D1022219E0514554
:100A100001D1202215E0B14202D14FF4007210E062
:100A2000B94202D14FF400520BE0594502D14FF4C4
:100A3000003206E0714502D14FF4001201E04FF0A0
:100A40000072124908394A6080F82090816A0029B2
:100A50001AD0BDE8F05F0847082505FA0CF52542D5
:100A600012D01B0710D50B6823F00E030B6090F813
:100A70004010C36B02FA01F15960826380F82120B3
:100A800080F82090016BE2E7BDE8F09F080002408B
:100A90001C00024030000240440002405800024066
:100AA0006C00024030B548B308C8154914221944F7
:100AB000B1FBF2F18900C1631249816302214177E0
:100AC0001A6843F6F0718A43D0E900142143D0E953
:100AD00002452C432143046921434469214384692D
:100AE000214311431960002141628162C1620163A7
:100AF0004163012242770177084630BD012030BDB5
:100B0000F8FFFDBF0000024070B5044690F82000D9
:100B1000002501280CD0012084F8200094F82160E1
:100B20000020012E06D084F820000225284670BD42
:100B3000022070BD022684F82160A0632068066848
:100B400026F0010606602046FFF722FEE06A002834
:100B50002068016802D041F00E0106E021F0040196
:100B600001602068016841F00A01016020680168A5
:100B700041F001010160D9E770B5044600F0F6F8D4
:100B80000546601C02D004480078044400F0EEF8EA
:100B9000401BA042FAD370BD000000202DE9F84FA1
:100BA000DFF890A100220AF1040B144601274FF050
:100BB0000F090BF1040E00BF0B6807FA04F52B4078
:100BC000AB4274D1DFF870C14E68A6EB0C086645E5
:100BD0002BD00DDC032E34D005DC36B3012E19D01A
:100BE000022E2FD11BE0112E16D0122E2AD119E081
:100BF000B8F5881F19D006DCB8F5803F15D0B8F5D8
:100C0000801F1FD111E0B8F5001F0ED0B8F5041FEA
:100C100018D10AE0CA6815E0CA68121D12E0CA6855
:100C200008320FE0CA680C320CE08A682AB1012A47
:100C30004FF0080203D0456104E0042202E00561A0
:100C400000E00022FF2B01D8064601E000F1040677
:100C50004FEA840501D9A5F12005D6F800C009FAAC
:100C600005F82CEA080C02FA05F54CEA050CC6F862
:100C700000C04D68ED0057D5304DAE6946F0010615
:100C8000AE61AD6924F0030605F0010500952C4D19
:100C900006EB050CDCF80850A6074FEA167809FAAF
:100CA00008F6B543274EB04202D1002610E03BE0E3
:100CB000254EB04201D101260AE0244EB04201D1B6
:100CC000022605E0224EB04201D1032600E00426B0
:100CD00006FA08F62E43CCF808604D68DAF8006092
:100CE000ED03554601D51E4300E09E432E604D683E
:100CF000DBF80060AD035D4601D51E4300E09E4376
:100D00002E604D68DEF80060ED02754601D51E4389
:100D100000E09E432E604D68AD020E4D2E6801D559
:100D20001E4300E09E432E60641C102CFFF444AF71
:100D3000BDE8F88F000401400000111000100240CF
:100D40000000014000080140000C0140001001407B
:100D5000001401400C0401408068084000D00120CC
:100D600070470AB1016170470904FBE701488068D8
:100D7000704700000000002070B5040011D0216809
:100D80004CF6CC400860216845F255500860D4E923
:100D9000000141602168A0688860FFF7E7FF054611
:100DA00009E0012070BD00BFFFF7E0FF401B3028C5
:100DB00001D9032070BD2068C0680028F4D12168E3
:100DC0004AF6AA200860002070BD00684AF6AA21F1
:100DD00001600020704700000248816802781144D9
:100DE0008160704700000020074810B5016841F09D
:100DF00010010160032000F095F8002000F006F8D3
:100E000000F024F8002010BD0020024070B50D4D08
:100E100004464FF47A712878B1FBF0F00A4909686A
:100E2000B1FBF0F000F025FB48B9102C07D20022EE
:100E30002146501E00F056F800206C6070BD012065
:100E400070BD0000000000200C0000201D4808B507
:100E5000816941F001018161806900F00100009029
:100E6000042000F05FF8002211466FF00B0000F044
:100E700039F8002211466FF00A0000F033F8002222
:100E800011466FF0090000F02DF800221146501FA6
:100E900000F028F800221146101F00F023F800226D
:100EA0001146901E00F01EF800221146501E00F060
:100EB00019F80548416821F0E06141F00071416096
:100EC00008BD0000001002400000014000F01F02B9
:100ED000012191404009800000F1E020C0F800119C
:100EE00070470000F0B40E4B1B680C46C3F302239E
:100EF000C3F10705042D00D90425191D072901D2C6
:100F0000002300E0DB1E012606FA05F1491E214000
:100F100099409E40761E16403143F0BC01F05EB908
:100F20000CED00E0064900F0070208684FF6FF03E9
:100F3000184040EA0220034A10430860704700004E
:100F40000CED00E00000FA052DE9F047DFF83C81E8
:100F500005460E46D8F8000000F00700B0420CD25B
:100F6000D8F8001021F007013143C8F80010D8F874
:100F7000000000F00700B04263D12878444C80079D
:100F800005D56068A96820F0F00008436060287803
:100F9000C00745D06868012816D02168022816D0FD
:100FA000890700294DDA616821F00301014361607E
:100FB000FFF7DCFE6968074641F2883001290FD04F
:100FC0000229814619D027E021688903E9E78901D0
:100FD000E7E700BFFFF7CAFEC11B494501D918E08A
:100FE00081466068C0F381000128F3D118E000BF9A
:100FF000FFF7BCFEC11B49450BD86068C0F38100F8
:101000000228F5D10CE000BFFFF7B0FEC11B494537
:1010100002D90320BDE8F087606810F00C0FF3D10F
:10102000D8F80010404601F00701B1420BD9016821
:1010300021F0070131430160006800F00700B04271
:1010400001D00120E6E72878400705D56068E96807
:1010500020F4E060084360602878000706D56068E7
:10106000296920F4605040EAC100606000F03CF85B
:101070006168084AC1F30311515CC8400649086021
:101080000020FFF7C3FE0020C4E70000002002405C
:1010900000100240BC3500080C0000200148006828
:1010A000704700000C0000200448054900684968AA
:1010B000044AC1F30221515CC84070470C00002073
:1010C00000100240CC350008044805490068496812
:1010D000044AC1F3C221515CC84070470C00002093
:1010E00000100240CC35000812A185B00FC98DE870
:1010F0000F0014A0144A006804905168134801F0CE
:101100000C03042B10D0082B0ED1C1F38343C90369
:101110001DF803000AD5516804AAC1F34041515C8F
:101120000A4A5043B0FBF1F005B070470849484304
:10113000FAE7000002030405060708090A0B0C0D74
:101140000E0F1010010200000010024000127A0081
:1011500000093D002DE9F84F04460078B94DC0075D
:1011600048D06868C0F38100012807D06868C0F3E0
:101170008100022809D16868C00306D52868800369
:1011800038D5606800286FD034E06068B0F5803FE3
:101190000BD010B1B0F5A02F11D0286820F480300A
:1011A0002860286820F4802002E0286840F480301D
:1011B0002860606888B1FFF7D9FD064609E0286815
:1011C00040F480202860F0E7FFF7D0FD801B642802
:1011D00075D828688003F7D50CE0FFF7C7FD0646F1
:1011E00005E000BFFFF7C2FD801B6428F0D8286827
:1011F0008003F7D42078944E80074FF001094FF018
:1012000000083BD5686810F00C0F07D06868C0F381
:101210008100022809D16868C00306D428688007C5
:1012200014D5206901281FD110E02069B0B1C6F89B
:101230000090FFF79BFD074605E000BFFFF796FD16
:10124000C01B0228C4D828688007F7D528686169C0
:1012500020F0F80040EAC10028600FE0C6F80080E6
:10126000FFF784FD074606E0E9E000BFFFF77EFDDB
:10127000C01B022823D828688007F7D420780007ED
:101280002CD57248A169D9B1C0F80090FFF76EFD66
:10129000074604E0FFF76AFDC01B02280FD8686A02
:1012A0008007F7D56A484FF4FA510068B0FBF1F0B7
:1012B000009000BF0098411E0091FAD20EE080E03D
:1012C000C0F80080FFF752FD074604E0FFF74EFD2F
:1012D000C01B022875D8686A8007F7D420784007B9
:1012E00060D5E8690027C00008D4E86940F0805064
:1012F000E861E869012700F08050009055480168D6
:10130000C90513D40168834641F480710160FFF779
:101310002DFD824606E000BFFFF728FDA0EB0A0086
:1013200064284ED8DBF80000C005F5D5E068012838
:101330000AD008B1052813D0286A20F001002862DD
:10134000286A20F0040002E0286A40F001002862C8
:10135000E06841F2883B98B1FFF708FD82460BE058
:10136000286A40F004002862EEE700BFFFF7FEFCA9
:10137000A0EB0A0159455AD8286A8007F6D50CE037
:10138000FFF7F4FC824605E0FFF7F0FCA0EB0A0152
:1013900059454CD8286A8007F6D41FB1E86920F077
:1013A0008050E861E06988B36968C1F3810102296E
:1013B00045D00228C6F8608004D0FFF7D7FC044669
:1013C00038E034E0FFF7D2FC074604E0FFF7CEFC3C
:1013D000C01B02282BD828688001F7D4206AB0F5FA
:1013E000803F05D16868A16820F400300843686038
:1013F000D4E908010843696821F47411084368605E
:10140000C6F86090FFF7B2FC044606E015E000BFA6
:10141000FFF7ACFC001B022809D828688001F7D52B
:101420000BE000BFFFF7A2FC001B022802D903203B
:10143000BDE8F88F28688001F4D40020F8E7012087
:10144000F6E70000001002400000424280044242E1
:101450000C000020007000404FF0E02104280869D3
:1014600003D020F004000861704740F00400FAE760
:10147000704710B5401EB0F1807F01D3012010BD30
:101480004FF0E02460610F21601700F0A7FE0020FC
:10149000A06107202061002010BD10B5FFF7E8FF14
:1014A00010BD7047704730B590F83C20012A20D01D
:1014B000012280F83C20022380F83D3003685C68FC
:1014C00024F070045C6003685C680D682C435C6009
:1014D00003689C6824F080049C6003689C684968E9
:1014E0000C439C6080F83D20002180F83C100846A9
:1014F00030BD022030BD10B5040003D094F83D008B
:1015000010B107E0012010BD002084F83C00204607
:1015100000F00CF8022084F83D00211D206800F046
:10152000DFFF012084F83D00002010BD08B50068F1
:101530000B49884212D10B48816941F400618161F5
:101540008069002200F40060009001211920FFF75B
:10155000C9FCBDE808401920FFF7B8BC08BD000071
:10156000002C0140001002400168CA6842F00102EC
:10157000CA600068016841F0010101600020704705
:1015800070B5044690F83C00012817D0012584F876
:101590003C50022084F83D002068826822F07702E7
:1015A00022F47F4282600868502837D00DDC202862
:1015B00059D005DC88B3102841D151E0022070BD1C
:1015C000302853D040283AD13FE060282ED07028F0
:1015D0000BD0B0F5805F03D0B0F5005F2FD110E0E5
:1015E0002068816821F0070115E0CB68D1E901216D
:1015F000206800F0B6FF2168886840F077008860B6
:101600001DE0CB68D1E90121206800F0AAFF206825
:10161000816841F48041816011E01EE0CA68496838
:10162000206801F053F85021206806E0CA68496834
:10163000206801F05CF86021206800F09CFF84F8CD
:101640003D50002084F83C0070BDCA68496820689D
:1016500001F03CF840212068EFE700212068ECE72A
:1016600010212068E9E720212068E6E73021206882
:10167000E3E7704770B50446006801694FF0000564
:10168000C943890715D4C168C943890711D4E91E24
:10169000016101202077206880698007204602D000
:1016A000FFF7E7FF04E000F0ABF8204600F03EF95A
:1016B000257720680169C943490717D4C168C94320
:1016C000490713D46FF004010161022020772068DC
:1016D000806910F4407F204602D0FFF7CAFF04E083
:1016E00000F08EF8204600F021F925772068016986
:1016F000C943090716D4C168C943090712D46FF05A
:1017000008010161042020772068C0698007204615
:1017100002D0FFF7AEFF04E000F072F8204600F0C0
:1017200005F9257720680169C943C90617D4C1683E
:10173000C943C90613D46FF0100101610820207756
:101740002068C06910F4407F204602D0FFF791FF67
:1017500004E000F055F8204600F0E8F8257720680E
:101760000169C943C90708D1C168C943C90704D180
:10177000891E0161204600F0F3F820680169C94321
:10178000090609D4C168C943090605D46FF0800170
:1017900001612046FFF785FE20680169C9434906BB
:1017A00009D4C168C943490605D46FF040010161FD
:1017B000204600F0EDF820680169C94389060BD482
:1017C000C168C943890607D46FF020010161204632
:1017D000BDE87040FFF766BE70BD00001FB5006831
:1017E000B0F1804F09D10120009002200190032028
:1017F000039069460148FFF7D1F91FBD0008014079
:10180000704770B5044690F83C000D4601280DD095
:10181000012684F83C60022084F83D0042B1042A8D
:1018200018D0082A2AD00C2A4DD139E0022070BDE8
:10183000206800F0A9FE2068816941F008018161FB
:101840002068816921F004018161206881692A6929
:10185000114311E0206800F0BFFE2068816941F467
:10186000006181612068816921F480618161206863
:1018700081692A6941EA0221816124E0206800F03F
:10188000D7FE2068C16941F00801C1612068C169C3
:1018900021F00401C1612068C1692A69114311E086
:1018A000206800F0F1FE2068C16941F40061C16167
:1018B0002068C16921F48061C1612068C1692A6919
:1018C00041EA0221C16184F83D60002084F83C00B7
:1018D00070BD10B5040003D094F83D0010B107E0CE
:1018E000012010BD002084F83C00204600F00CF8D8
:1018F000022084F83D00211D206800F0F1FD012048
:1019000084F83D00002010BD08B50068B0F1804F9C
:1019100008D10548C16941F00101C161C06900F009
:101920000100009008BD0000001002407047000058
:1019300010B504460068012200F008FE074920683F
:10194000884203D1416C41F4004141642068016840
:1019500041F001010160002010BD0000002C014099
:1019600008490068096888420BD107480188491C6A
:1019700089B201800A2904D1002101800348FFF7C0
:1019800024BA70472C000020100000202000002006
:10199000704710B504460068416994F83920C1F3D6
:1019A000C011212A0BD151B1416921F0800141615F
:1019B000206B08B1FEF768FF204600F024FF206886
:1019C000416994F83A20C1F38011222A0BD151B118
:1019D000416921F040014161606B08B1FEF754FF9D
:1019E000204600F002FF002010BD704770B502686D
:1019F00004461068D168536910F00F0F50D003F0FF
:101A0000010501F4907635435DD0C20705D0CA05C3
:101A100003D5E26B42F00102E263420705D5DA0723
:101A200003D0E26B42F00202E263820705D5DA07D7
:101A300003D0E26B42F00402E263020705D5DA0745
:101A400003D0E26B42F00802E263E26B002A33D07B
:101A5000800604D5880602D5204600F0DDFE206809
:101A60004069E16BC0F38010090700D428B3204619
:101A700000F0BBFE2068416949061AD5416921F092
:101A800040014161606BA0B11B494163606BFEF78F
:101A900013FF002810D0606B416BBDE87040084711
:101AA000830610D58B060ED52046BDE8704000F0A9
:101AB000B3BE2046FFF799FF70BD2046FFF795FFA4
:101AC0000020E06370BD030606D50B0604D5204652
:101AD000BDE8704000F0A4BF4006F3D54806F1D53C
:101AE000D168204621F04001D160202184F83910CE
:101AF00000F08EF970BD00001327000870B50400D7
:101B000004D094F83900002510B106E0012070BD22
:101B100084F83850204600F023F8242084F8390057
:101B20002068C16821F40051C160204600F0C0FE69
:101B30002068016921F4904101612068416921F028
:101B40002A0141612068C16841F40051C160E56328
:101B5000202084F8390084F83A00002070BD00008D
:101B60002DE9F047044603685848DFF85CC10221BC
:101B7000032206150025802786B04FF010084FF489
:101B8000005963454BD1836943F480438361806985
:101B9000DFF83CA100F4804004900802CDE9000188
:101BA000039269465046FEF7F9FFCDE900656946A4
:101BB00050460295FEF7F2FF474E4648C6E90257E7
:101BC00035617561C6E90008C6E906593046FEF779
:101BD00069FF18B18D2141A000F0D0FF2663746227
:101BE0003D4E3C4844361430C6E90005C6E902576C
:101BF00035614FF440507561C6E906503046FEF736
:101C000051FF18B19D2135A000F0B8FF6663002296
:101C1000114625207462FFF765F925204EE0DFF8B4
:101C2000CCC063454CD1C36943F48023C361C06910
:101C3000CDE9006100F48020CDE903202C4E6946F7
:101C40003046FEF7ABFFF014CDE90005694630469B
:101C50000295FEF7A3FF204E1E4888361438C6E9C9
:101C60000005C6E9025735617561C6E90659304677
:101C7000FEF718FF18B1CB2118A000F07FFF6663B4
:101C80007462154E1348CC362838C6E902573561C0
:101C90007561C6E900088014C6E906503046FEF7B3
:101CA00001FF18B1DB210DA000F068FF26630022C0
:101CB000114627207462FFF715F92720FFF706F970
:101CC00006B0BDE8F0870000003801400010024077
:101CD00000080140440002406C0F00202E2E2F53BC
:101CE00072632F75736172742E63000000480040A8
:101CF000000C0140F8B5044690F83A0020283CD189
:101D0000C1B3BAB394F83800012836D0012084F862
:101D10003800A162A2850025E563222084F83A00FC
:101D2000636B17489862636B1648D862636B1648FA
:101D30001863606B134645630846666B216802466C
:101D40003046091DFEF7E0FE2068016841680091F9
:101D500084F83850C16841F48071C16020684169DD
:101D600041F0010141612068416941F04001416158
:101D70000020F8BDFFE70120FBE70220F9E70000A3
:101D80006D270008A927000823270008704770471F
:101D900070B5044690F83900202830D169B362B399
:101DA00094F8380001282AD0012084F838002162F4
:101DB000A284E2840025E563212084F83900236BA6
:101DC00010489862236B1048D862236B0F48186341
:101DD000206B134645632668206B321DFEF794FE88
:101DE00021686FF04000086084F83850206841692D
:101DF00041F080014161002070BD012070BD0220D2
:101E000070BD0000B3270008E12700082327000861
:101E1000154A0168126891420FD1006B0068016891
:101E200021F00101016011480022017821F0020136
:101E300001704FF480710E4812E00B4A4032126874
:101E400091420FD1006B0068016821F0010101602F
:101E500008480022017821F002010170042106489F
:101E6000FEF77FBF70470000EC0E0020E404002066
:101E700000080140E8080020000C01407047FEE720
:101E800000F10C0141608160002101607047000099
:101E900007480021017141718171C1710170417068
:101EA0008170C1700121017241728172C1727047EB
:101EB000AC0400202DE9F041184C80461646A0687D
:101EC000174D221A2A320B4604F10C072A60B2423F
:101ED00011D3324641461846FEF734F9A06804F1A2
:101EE00029013044A060884200D9A76020683044AE
:101EF0002060BDE8F081B01AC5E9012041461846CE
:101F0000FEF720F9696838464144AA68FEF71AF9D5
:101F1000A86820440C30A060E8E70000B804002066
:101F200014000020154808B5416941F001014161E4
:101F30004069002200F00100009011460C20FEF7DD
:101F4000D1FF0C20FEF7C2FF002211460D20FEF744
:101F5000C9FF0D20FEF7BAFF002211460E20FEF742
:101F6000C1FF0E20FEF7B2FF002211460F20FEF740
:101F7000B9FFBDE808400F20FEF7A8BF00100240DF
:101F8000F0B51E4885B0816941F004018161816925
:101F900001F004010491816941F0080181618069C7
:101FA000174E00F008004FF4F87404900022214608
:101FB0003046FEF7D6FE134F002204213846FEF7C6
:101FC000D0FE009401240225694630460395019411
:101FD000FEF7E4FD0420CDE9000469460395384688
:101FE000FEF7DCFD4FF4704000900020019002905D
:101FF00069463846FEF7D2FD05B0F0BD001002403C
:1020000000080140000C01400A4810B50849016071
:10201000012141604FF47A718160FEF7ADFE002826
:1020200005D0BDE810403A2103A000F0A7BD10BDC7
:1020300000300040200000202E2E2F5372632F69A5
:102040007764672E6300000010B5184886B0164903
:1020500001603F210024C0E9011442F20F71C0E980
:10206000031444618461FFF746FA18B1422110A0BD
:1020700000F084FD4FF48050009069460B48FFF754
:102080007FFA18B148210AA000F078FD049404A951
:1020900006480594FFF707FA002803D04F2104A053
:1020A00000F06CFD06B010BD002C01402C0000209B
:1020B0002E2E2F5372632F74696D2E630000000063
:1020C00010B51A488AB04FF0804101603F210024CA
:1020D000C0E901144FF47A71C0E903148461FFF779
:1020E000F8FB18B1612112A000F048FD079407A980
:1020F0000E480894FFF7D7F918B168210CA000F03A
:102100003DFD6020CDE900040294002269460748A5
:102110000494FFF776FB18B1712105A000F02EFDA5
:102120000248FFF75BFB0AB010BD00006C00002006
:102130002E2E2F5372632F74696D2E6300000000E2
:102140000D4810B50B4901604FF4E13141600021A9
:1021500081600C22C160C0E904128161C161FFF796
:10216000CDFC002805D0BDE810404F2103A000F0B1
:1021700005BD10BD00380140EC0E00202E2E2F535F
:1021800072632F75736172742E6300000D4810B571
:102190000B4901604FF4E1314160002181600C2264
:1021A000C160C0E904128161C161FFF7A7FC00288A
:1021B00005D0BDE81040622103A000F0DFBC10BDD7
:1021C000004800402C0F00202E2E2F5372632F75D5
:1021D000736172742E630000FEE770470907090EF1
:1021E000002806DA00F00F0000F1E02080F8141D4E
:1021F000704700F1E02080F800147047704700003D
:102200002DE9F04143480268082A77D341680B78EA
:102210007E2B0BD1451A2A35022D01D98C7803E08B
:10222000C5F102031844047BA24201D201206AE0F6
:10223000394EAC4202D82246304607E02A4636489C
:10224000FDF780FF3349621B70190C31FDF77AFFEF
:10225000A11E3148FEF71AFA304BF27801461B787E
:1022600030469A42E2D1051935F8022C52BA8A4218
:10227000DCD141798139062941D2DFE801F003142C
:102280001A434330661C05468670A4F10801801D80
:10229000FEF79CFAE871611E1F48FEF7F7F96872B5
:1022A000000A287228E0A4F10801B01DFEF786FAA2
:1022B00028E0A4F108013746B01DFEF79DFA661E1E
:1022C000BE70E11E1448FEF7E1F905F8020C000AA1
:1022D00005F8030CB1B2104800F05CF812E0661C7F
:1022E000074686700120B871611E0B48FEF7CEF9D3
:1022F0003855000A05F8010C3146ECE707E008A064
:1023000000F064FC2046BDE8F04101F045B9BDE8AD
:10231000F0810000B8040020AC0000201200002072
:10232000696E76616C696420636D640A0000000068
:1023300002461648052A28D2DFE802F0030A1118DF
:102340001F00012902D0002210211AE00122FBE720
:10235000012902D00022202113E00122FBE70129FC
:1023600002D0002240210CE00122FBE7012902D02B
:102370000022802105E00122FBE7012903D0002291
:10238000F021FEF7EEBC0122FAE770470008014099
:102390007047000070B50D4606460B4C02E0012068
:1023A000FEF7EAFB20788007F9D42078074940F04F
:1023B000020020704FF4807008602A463146BDE864
:1023C00070400348FFF7E4BCE4040020100801401B
:1023D000EC0E002070B50D4606460B4C02E00120C5
:1023E000FEF7CAFB20788007F9D42078074940F02F
:1023F00002002070042008602A463146BDE8704083
:102400000348FFF7C5BC0000E8080020100C01409D
:102410002C0F002010B5FEF7DFFCBDE81040FFF7E1
:102420003CB830B58FB00A20009001200225CDE9DC
:1024300006051021CDE9040100244FF46010CDE918
:1024400008406846FEF786FE00B1FEE70F20CDE9A2
:102450000A054FF48060CDE90C4002210AA80E94D1
:10246000FEF772FD00B1FEE7FEF718FE4FF47A7139
:10247000B0FBF1F0FEF7FDFF0420FEF7EDFF0022B8
:102480001146501EFEF72EFD0FB030BD0D480168FD
:1024900041F00101016041680B4A1140416001684F
:1024A0000A4A11400160016821F4802101604168FD
:1024B00021F4FE0141604FF41F0181600449C00313
:1024C00008607047001002400000FFF8FFFFF6FEB2
:1024D00008ED00E00148FFF7CDB800002C00002017
:1024E000F0B50268164B174C174D4FF080479842D5
:1024F00005D0B84203D0A04201D0A84203D122F0B7
:1025000070064A683243984205D0B84203D0A042D0
:1025100001D0A84203D122F44074CA68224322F0B9
:1025200080044A69224302608A68C2620A68826241
:10253000984201D10969016301214161F0BD0000A8
:10254000002C0140000400400008004010B50123A9
:10255000046A8B409C430462036A8A40134303620B
:1025600010BD10B5846842EA032224F47F440A4374
:102570002243826010BD826822F070020A4342F05A
:10258000070181607047000030B5026A22F0010245
:102590000262026A4368846924F073050C682C4364
:1025A00022F002058A682A430A4DA8420BD122F084
:1025B0000805CA6823F440732A434D6922F00402D7
:1025C0001D438B692B434360846149684163026208
:1025D00030BD0000002C014030B5026A22F010022C
:1025E0000262026A436884690D6824F4E64444EA9E
:1025F00005248D6822F0200242EA05120B4DA84204
:102600000ED1CD6822F0800242EA05124D6923F412
:10261000406343EA85038D6922F0400243EA850363
:102620004360846149688163026230BD002C0140CF
:1026300030B5026A22F480720262036A4268C46999
:1026400023F4007324F073050C682C438D6843EA6F
:1026500005230C4DA8420ED1CD6823F4006343EA54
:1026600005234D6922F4405242EA05128D6923F494
:10267000806342EA05124260C4614968C163036233
:1026800030BD0000002C014030B5026A22F48052B7
:102690000262046A4268C3690D6823F4E64343EAB0
:1026A00005238D6824F4005444EA0534064DA842FD
:1026B00004D14D6922F4804242EA85124260C3612E
:1026C00049680164046230BD002C014010B5036A02
:1026D000046A24F001040462846924F0F00444EAEA
:1026E000021423F00A020A438461026210BD10B58D
:1026F000036A23F0100303628369046A23F47043BE
:1027000043EA023224F0A00343EA0111826101622C
:1027100010BD10B5406A0021C185C184FFF765F97D
:1027200010BD70B5446A2068406994F83910C0F350
:10273000C0100025212904D118B1E584204600F0FD
:1027400062F82068406994F83A10C0F3801022299A
:1027500004D118B1E585204600F047F8E06B40F061
:102760001000E0632046FFF740F970BD10B5014648
:10277000406A09680968890613D40021C185016887
:10278000CA6822F48072CA6001684A6922F00102B4
:102790004A6101684A6922F040024A61202180F8BA
:1027A0003A10FFF7F3FA10BD10B5406AFFF7EFFAE1
:1027B00010BD10B50146406A0968096889060CD445
:1027C0000021C18401684A6922F080024A610068E0
:1027D000C16841F04001C16010BDFFF719FB10BD99
:1027E00010B5406AFFF74AFB10BD0168CA6822F4C1
:1027F0009072CA6001684A6922F001024A61202190
:1028000080F83A1070470168CA6822F0C002CA60B6
:10281000202180F83910704710B590F83A1022291D
:1028200001D0022010BD8168B1F5805F11D001692F
:10283000002901681FD0496801F07F03816A4A1CA2
:1028400082620B70C18D491E0904090CC18518D024
:102850002BE00269816A002A0268526805D0D2B270
:102860000A80816A491C8162ECE7C2F308020A808F
:10287000816A891CF7E74A68816A4B1C83620A7087
:10288000E0E70168CA6822F02002CA600168CA68ED
:1028900022F48072CA6001684A6922F001024A612A
:1028A000202180F83A10FFF771FA002010BD0000D7
:1028B0002DE9F041044600680169E26821F44051C5
:1028C000114301612169A0680843616908432168D7
:1028D000CA6841F20C639A430243CA6020684169A6
:1028E000A26921F44071114341614C49206864257B
:1028F000322688423CD1FEF7E7FB00EBC00101EB3A
:10290000001061688900B0FBF1F7FEF7DDFB00EB1A
:10291000C00101EB00106168B0468900B0FBF1F026
:10292000B0FBF5F06FF01801484307EB800106EBB0
:102930000110B0FBF5F000F0F006FEF7C5FB00EB70
:10294000C00101EB001061688900B0FBF1F0B0FB41
:10295000F5F006EB0016FEF7B7FB00EBC00101EB4C
:10296000001061688900B0FBF1F7FEF7ADFB3BE0BA
:10297000FEF79AFB00EBC00101EB001061688900D3
:10298000B0FBF1F7FEF790FB00EBC00101EB00108C
:102990006168B0468900B0FBF1F0B0FBF5F06FF074
:1029A0001801484307EB800106EB0110B0FBF5F07E
:1029B00000F0F006FEF778FB00EBC00101EB001021
:1029C00061688900B0FBF1F0B0FBF5F006EB001692
:1029D000FEF76AFB00EBC00101EB001061688900A3
:1029E000B0FBF1F7FEF760FB00EBC00101EB00105C
:1029F00061688900B0FBF1F0B0FBF5F06FF01801F1
:102A0000484307EB800108EB0110B0FBF5F02168AB
:102A100000F00F0030448860BDE8F08100380140CC
:102A200090F83910212901D0022070478168B1F552
:102A3000805F016A0BD04A1C02620268097851600B
:102A4000C18C491E0904090CC1840ED017E0098805
:102A50000268C1F30801516001690029016A02D0CE
:102A6000491C0162ECE7891CFBE70168CA6822F097
:102A70008002CA600068C16841F04001C160002066
:102A80007047000010B5044800F046F8BDE810405B
:102A90000148FEF7ABBF0000EC0E002010B5044863
:102AA00000F00AF8BDE810400148FEF79FBF0000A3
:102AB0002C0F0020FEE7000038B500680068C04316
:102AC000C00626D4134C0025206801684068009099
:102AD0002046FEF75EFF606B00684068A4F2446425
:102AE000C0F5806080B24FF480626080904202D175
:102AF000A4F2044045802078211D40F001002070A0
:102B00000448FFF7F7F86188201DBDE83840FFF75B
:102B100061BC38BD2C0F002038B500680068C04388
:102B2000C00626D4134C0025206801684068009038
:102B30002046FEF72EFF606B00684068A4F608246C
:102B4000C0F5806080B24FF480626080904200D116
:102B500065802078211D40F0010020700548FFF7B6
:102B6000C9F80548A2788168201DBDE83840FFF704
:102B7000A1B938BDEC0E0020B8040020FEE700002B
:102B80007CB5044600201D46164600290BD0491E80
:102B9000CDE90041044B6A462946304600F0F4F87E
:102BA000009A002111707CBDB734000802E008C80B
:102BB000121F08C1002AFAD170477047002001E0B7
:102BC00001C1121F002AFBD1704700000FB410B5DD
:102BD0000A4C02E00120FDF7CFFF20788007F9D4EE
:102BE00003AB4FF400710648029AFFF7C9FF81B2A8
:102BF0000348FFF7CFFB10BC5DF814FBE404002092
:102C0000EC0C00202DE9FF5F82B00021DDE90430EB
:102C1000020DDDF840B0034318D044F61050A2F284
:102C2000FF3242431514119801281FD0A5EB0B0069
:102C3000401C5FEA000A4FF000064E4FDFF8389163
:102C4000B046504615D5CAF1000413E0119801248E
:102C50004AA3012801D16FEA0B010298119AC0E939
:102C60000031C0E9024206B0BDE8F09FCBF10000A0
:102C7000DFE704460021404A491842EB0450CDE901
:102C8000001012E0E00707D032463B464046494676
:102C9000FDF758FB8046894632463B4610461946AA
:102CA000FDF750FB06460F466410002CEAD1DDE923
:102CB0000401DDE90023BAF1000F06DAFDF742FB5B
:102CC00042464B46FDF73EFB05E0FDF7ADFB4246B5
:102CD0004B46FDF7A9FB04460E460022284BFDF7A4
:102CE0002BFC03D84FF0FF30014607E00022254BB4
:102CF00020463146FDF77FFAFDF705FC102409E078
:102D0000002C0ADB0A220023FDF744FA039B303231
:102D10001A55641E50EA0102F2D1641C039AC4F1F0
:102D200011031444119A012A03D0012208430DD142
:102D30000AE0084304D000204FF0110B119072E715
:102D4000A3EB0B056D1E0DE05B4504DD4FF00002AB
:102D500005F1010504E003DA4FF00002A5F10105D9
:102D6000002AECD002981199C0E90231C0E900456F
:102D700079E70000000014400000F03F3000000040
:102D80000000F0430000E03F2DE9FF4F95B09B4667
:102D90008946064600250FE2252877D100242746DC
:102DA000F84A0121059400E0044316F8013F203B56
:102DB00001FA03F01042F7D130782A2811D06FF0D1
:102DC0002F033078A0F13002092A16D8059A44F072
:102DD000020402EB820203EB42021044761C0590CF
:102DE000EFE759F8042B0592002A03DA504244F425
:102DF0000054059044F00204761C30782E2816D139
:102E000016F8010F44F004042A280DD06FF02F02A9
:102E10003078A0F13003092B09D807EB870302EBC8
:102E20004303C718761CF3E759F8047B761C307807
:102E30006C280FD006DC4C2817D068280DD06A28E3
:102E400014D104E0742810D07A280FD10DE044F496
:102E500000140AE044F4801401E044F44014727851
:102E6000824202D104F58014761C761C30786628E4
:102E70000BD013DC582877D009DC002875D0452802
:102E8000F6D04628F4D047281AD19DE118E06328EF
:102E900035D0642879D0652812D195E1702873D097
:102EA00008DC6728F1D069286FD06E280DD06F2814
:102EB00006D1B5E073282CD0752875D0782874D049
:102EC0005A46179990476D1C75E1C4F302500228C9
:102ED00009D003280DD0D9F8001004280DD00D60BA
:102EE00009F1040967E1D9F80010EA17C1E90052B5
:102EF000F6E7D9F800100D80F2E70D70F0E719F849
:102F0000041B8DF8001000208DF80100EA46012016
:102F100003E059F804AB4FF0FF3061074FF00001B8
:102F200002D40DE008F101018846B9420FDA80456C
:102F3000F8DB1AF808100029F4D108E008F10101C3
:102F400088468142FADB1AF808100029F6D1059864
:102F50005B46A0EB080721463846179A00F094FA22
:102F6000284400EB080507E04DE029E10DE01AF8E0
:102F7000010B5A4617999047B8F10108F7D25B4602
:102F800021463846179A13E142E00A220092C4F320
:102F900002524FF0000A022A08D059F804CB032A43
:102FA0004FEAEC710AD00DE029E02AE009F10701AF
:102FB00021F00702F2E802C1914609E00FFA8CFC09
:102FC0004FEAEC71042A03D14FFA8CFC4FEAEC7102
:102FD000002907DA0A460021DCF1000C61EB02014E
:102FE0002D2202E0220504D52B228DF80420012297
:102FF00003E0E20701D02022F7E7904659E00A21DA
:1030000002E010220DE010214FF0000A00910BE0C9
:1030100010224FF0000A44F004040827009203E055
:1030200008224FF0000A0092C4F30252022A05D08F
:1030300059F804CB0021032A08D009E009F107015F
:1030400021F00702F2E802C1914605E01FFA8CFC6C
:10305000042A01D10CF0FF0C4FF00008220728D5FC
:10306000702806D0009B83F0100353EA0A0305D0B2
:103070000EE040228DF80420012208E05CEA010203
:1030800006D030228DF804208DF8050002229046EB
:10309000009B83F0080353EA0A030AD15CEA0102A9
:1030A00001D1620705D530228DF804204FF00108C8
:1030B0007F1E582804D034A003900EA802900DE083
:1030C00036A0F9E753466046009AFDF763F8844658
:1030D0000398825C0298401E029002705CEA010034
:1030E000F0D1029806A9081A00F1200A600702D55B
:1030F00024F4803400E00127574502DDA7EB0A00E5
:1031000000E0002000EB0A01009005984144401ABD
:103110000590E00306D45B462146179A059800F017
:10312000B3F90544002706E001A85A46C05D179987
:1031300090476D1C7F1C4745F6DBE0030CD55B46D2
:103140002146179A059800F09FF9054404E03020C5
:103150005A46179990476D1C0099481E0090002907
:10316000F5DC08E0029802995A460078491C029161
:10317000179990476D1CBAF10001AAF1010AF1DC20
:1031800065E100000928010030313233343536372B
:1031900038396162636465660000000030313233A3
:1031A0003435363738394142434445460000000043
:1031B00000F058F90544761C307800287FF4ECAD17
:1031C00019B02846BDE8F08F620700D4062709F140
:1031D000070222F0070CFCE80223E14603F0004856
:1031E0005FEA080C02D00FF2702C0DE05FEA045C7D
:1031F00002D50FF2682C07E05FEAC47C02D00FF220
:10320000602C01E0AFF2700C4FF0FF3823F0004368
:10321000CDF850C065280CD006DC452809D04628DA
:103220001DD047283DD13DE0662818D067287ED1C3
:1032300038E00021112F01DB112000E0781CCDE9DE
:10324000000106A90EA8FFF7DDFCDDE90F010E9ACB
:1032500003910021009207F1010A04914DE04FF023
:1032600000400097CDE9011006A90EA8FFF7CAFC9F
:10327000DDE90F0203920E9B11990022DDF80CA0EC
:103280000093049211B9791C00EB010AB7EB0A0014
:1032900004D4C0F1FF3007F1010A0490AAEB070043
:1032A000019044E0012F00DA01270021112F01DDF8
:1032B000112000E03846CDE9000106A90EA8FFF76D
:1032C000A1FCDDE90F010E9A039100210491009207
:1032D000BA4621070CD40399514500DA8A46BAF15F
:1032E000010F05DD009AAAF10101515C302908D0D7
:1032F000B84202DA10F1040F06DA0121CDE901101B
:1033000015E0AAF10101E9E7002805DC0499014470
:103310000491AAEB000102E0411C514500DD8A4600
:103320000499401A401C01904FF000400290200781
:1033300004D40198504501DBCDF8048000208DF8BD
:103340004F0002980DF14F07B0F1004F25D02B2010
:103350000E9002984FF0020800280CDA40420290CA
:103360002D200E9007E00A210298FCF7FDFE303177
:10337000029007F8011DB8F10001A8F10108F2DC84
:1033800002980028EFD1791E0E980870307800F06E
:10339000200040F0450007F8020D12A8C01B00F104
:1033A00007081498007800B1012000EB0A01019889
:1033B00001EBE07105984144401A401E0590E0037E
:1033C00006D45B462146179A059800F05DF805443F
:1033D0001498007818B15A46179990476D1CE0036D
:1033E00024D55B462146179A059800F04DF8054410
:1033F0001CE00498002807DBDDE90301884203DDB7
:103400000098405C179901E0179930205A46904780
:10341000049805F10105401C04900198401E01909C
:1034200004D12E205A46179990476D1CBAF100011D
:10343000AAF1010ADDDC05E017F8010B5A461799DD
:1034400090476D1CB8F10001A8F10108F4DC5B465F
:103450002146179A0598ABE62D0000002B000000CE
:10346000200000002DE9F041044600251E461746C5
:10347000880404D405E039462020B0476D1C641E42
:10348000F9D52846BDE8F0812DE9F0410446002534
:103490001E469046C80301D5302700E02027880447
:1034A00004D505E041463846B0476D1C641EF9D589
:1034B0002846BDE8F0814A68002A06D00A68531CF5
:1034C0000B6010704868401E48607047FDF78CFC28
:1034D000FEF7A7FFFEF754FDFEF724FDFEF794FD6F
:1034E000FEF7B2FDFEF72CFEFEF7EAFDFEF74EFEFC
:1034F0001F4C4FF480652A46211D1E48FEF7FAFB3B
:103500002A461D4D1D48291DFEF7F4FB1948006889
:10351000C16841F01001C16018480068C16841F0FD
:103520001001C1601648FEF71FF800211548FEF78C
:10353000FFF900224FF480711348FDF712FC0022BE
:1035400004211248FDF70DFC207820F002002070C5
:10355000287820F0020028700D48FDF7DFF80D48AC
:10356000FEF78EFCFEF794FCFEF74AFEFCE7000037
:10357000E4040020EC0E0020E80800202C0F0020BE
:103580002C0000206C00002000080140000C0140CD
:1035900012000020B804002007494B68CA1A2932DB
:1035A000824201D31A1802E0821A0A440B324A609E
:1035B0000A68101A08607047B80400200000000074
:1035C00000000000010203040607080900000000D3
:1035D00001020304F4350008000000202000000070
:1035E000AC2B0008143600082000002060140000F6
:1035F000BC2B0008010000001000000000000000CB
:1036000000A24A04000000000000000000000000CA
:0436100000000000B6
:04000005080000ED02
:00000001FF
